:020000040000fa
:080000000603040000000000eb
:020000040000fa
:04000800880200006a
:020000040000fa
:04000c008802000066
:020000040000fa
:040010008802000062
:020000040000fa
:04001400880200005e
:020000040000fa
:04001800880200005a
:020000040000fa
:04001c008802000056
:020000040000fa
:040020008802000052
:020000040000fa
:04002400880200004e
:020000040000fa
:04002800880200004a
:020000040000fa
:04002c008802000046
:020000040000fa
:040030008802000042
:020000040000fa
:04003400880200003e
:020000040000fa
:04003800880200003a
:020000040000fa
:04003c008802000036
:020000040000fa
:040040008802000032
:020000040000fa
:04004400fe0a0000b0
:020000040000fa
:04004800880200002a
:020000040000fa
:04004c008802000026
:020000040000fa
:040050008802000022
:020000040000fa
:04005400880200001e
:020000040000fa
:04005800880200001a
:020000040000fa
:04005c008802000016
:020000040000fa
:040060008802000012
:020000040000fa
:04006400880200000e
:020000040000fa
:04006800880200000a
:020000040000fa
:04006c008802000006
:020000040000fa
:040070008802000002
:020000040000fa
:0400740088020000fe
:020000040000fa
:0400780088020000fa
:020000040000fa
:04007c0088020000f6
:020000040000fa
:0400800088020000f2
:020000040000fa
:0400840088020000ee
:020000040000fa
:0400880088020000ea
:020000040000fa
:04008c0088020000e6
:020000040000fa
:0400900088020000e2
:020000040000fa
:0400940088020000de
:020000040000fa
:0400980088020000da
:020000040000fa
:04009c0088020000d6
:020000040000fa
:0400a00088020000d2
:020000040000fa
:0400a40088020000ce
:020000040000fa
:0400a80088020000ca
:020000040000fa
:0400ac0088020000c6
:020000040000fa
:0400b00088020000c2
:020000040000fa
:0400b40088020000be
:020000040000fa
:0400b80088020000ba
:020000040000fa
:0400bc0088020000b6
:020000040000fa
:0400c00088020000b2
:020000040000fa
:0400c40088020000ae
:020000040000fa
:0400c80088020000aa
:020000040000fa
:0400cc0088020000a6
:020000040000fa
:0400d00088020000a2
:020000040000fa
:0400d400880200009e
:020000040000fa
:0400d800880200009a
:020000040000fa
:0400dc008802000096
:020000040000fa
:0400e0008802000092
:020000040000fa
:0400e400880200008e
:020000040000fa
:0400e800880200008a
:020000040000fa
:0400ec008802000086
:020000040000fa
:0400f0008802000082
:020000040000fa
:0400f400880200007e
:020000040000fa
:0400f800880200007a
:020000040000fa
:0400fc008802000076
:020000040000fa
:040100008802000071
:020000040000fa
:04010400880200006d
:020000040000fa
:040108008802000069
:020000040000fa
:04010c008802000065
:020000040000fa
:040110008802000061
:020000040000fa
:04011400880200005d
:020000040000fa
:040118008802000059
:020000040000fa
:04011c008802000055
:020000040000fa
:040120008802000051
:020000040000fa
:04012400880200004d
:020000040000fa
:040128008802000049
:020000040000fa
:04012c008802000045
:020000040000fa
:040130008802000041
:020000040000fa
:04013400880200003d
:020000040000fa
:040138008802000039
:020000040000fa
:04013c008802000035
:020000040000fa
:040140008802000031
:020000040000fa
:04014400880200002d
:020000040000fa
:040148008802000029
:020000040000fa
:04014c008802000025
:020000040000fa
:040150008802000021
:020000040000fa
:04015400880200001d
:020000040000fa
:040158008802000019
:020000040000fa
:04015c008802000015
:020000040000fa
:040160008802000011
:020000040000fa
:04016400880200000d
:020000040000fa
:040168008802000009
:020000040000fa
:04016c008802000005
:020000040000fa
:040170008802000001
:020000040000fa
:0401740088020000fd
:020000040000fa
:0401780088020000f9
:020000040000fa
:04017c0088020000f5
:020000040000fa
:0401800088020000f1
:020000040000fa
:0401840088020000ed
:020000040000fa
:0401880088020000e9
:020000040000fa
:04018c0088020000e5
:020000040000fa
:0401900088020000e1
:020000040000fa
:0401940088020000dd
:020000040000fa
:0401980088020000d9
:020000040000fa
:04019c0088020000d5
:020000040000fa
:0401a00088020000d1
:020000040000fa
:0401a40088020000cd
:020000040000fa
:0401a80088020000c9
:020000040000fa
:0401ac0088020000c5
:020000040000fa
:040208008802000068
:020000040000fa
:04020c008802000064
:020000040000fa
:040210008802000060
:020000040000fa
:04021400880200005c
:020000040000fa
:040218008802000058
:020000040000fa
:04021c008802000054
:020000040000fa
:040220008802000050
:020000040000fa
:04022400880200004c
:020000040000fa
:040228008802000048
:020000040000fa
:04022c008802000044
:020000040000fa
:040230008802000040
:020000040000fa
:04023400880200003c
:020000040000fa
:040238008802000038
:020000040000fa
:04023c008802000034
:020000040000fa
:040240008802000030
:020000040000fa
:04024400880200002c
:020000040000fa
:040248008802000028
:020000040000fa
:04024c008802000024
:020000040000fa
:040250008802000020
:020000040000fa
:04025400880200001c
:020000040000fa
:040258008802000018
:020000040000fa
:04025c008802000014
:020000040000fa
:040260008802000010
:020000040000fa
:04026400880200000c
:020000040000fa
:040268008802000008
:020000040000fa
:04026c008802000004
:020000040000fa
:040270008802000000
:020000040000fa
:0402740088020000fc
:020000040000fa
:0402780088020000f8
:020000040000fa
:04027c0088020000f4
:020000040000fa
:0402800088020000f0
:020000040000fa
:0402840088020000ec
:020000040000fa
:0402880088020000e8
:020000040000fa
:04028c0088020000e4
:020000040000fa
:0402900088020000e0
:020000040000fa
:0402940088020000dc
:020000040000fa
:0402980088020000d8
:020000040000fa
:04029c0088020000d4
:020000040000fa
:0402a00088020000d0
:020000040000fa
:0402a40088020000cc
:020000040000fa
:0402a80088020000c8
:020000040000fa
:0402ac0088020000c4
:020000040000fa
:0402b00088020000c0
:020000040000fa
:0402b40088020000bc
:020000040000fa
:0402b80088020000b8
:020000040000fa
:0402bc0088020000b4
:020000040000fa
:0402c00088020000b0
:020000040000fa
:0402c40088020000ac
:020000040000fa
:0402c80088020000a8
:020000040000fa
:0402cc0088020000a4
:020000040000fa
:0402d00088020000a0
:020000040000fa
:0402d400880200009c
:020000040000fa
:0402d8008802000098
:020000040000fa
:0402dc008802000094
:020000040000fa
:0402e0008802000090
:020000040000fa
:0402e400880200008c
:020000040000fa
:0402e8008802000088
:020000040000fa
:0402ec008802000084
:020000040000fa
:0402f0008802000080
:020000040000fa
:0402f400880200007c
:020000040000fa
:0402f8008802000078
:020000040000fa
:0402fc008802000074
:020000040000fa
:04030000880200006f
:020000040000fa
:04030400880200006b
:020000040000fa
:040308008802000067
:020000040000fa
:04030c008802000063
:020000040000fa
:04031000880200005f
:020000040000fa
:04031400880200005b
:020000040000fa
:040318008802000057
:020000040000fa
:04031c008802000053
:020000040000fa
:04032000880200004f
:020000040000fa
:04032400880200004b
:020000040000fa
:040328008802000047
:020000040000fa
:04032c008802000043
:020000040000fa
:04033000880200003f
:020000040000fa
:04033400880200003b
:020000040000fa
:040338008802000037
:020000040000fa
:04033c008802000033
:020000040000fa
:04034000880200002f
:020000040000fa
:04034400880200002b
:020000040000fa
:040348008802000027
:020000040000fa
:04034c008802000023
:020000040000fa
:04035000880200001f
:020000040000fa
:04035400880200001b
:020000040000fa
:040358008802000017
:020000040000fa
:04035c008802000013
:020000040000fa
:04036000880200000f
:020000040000fa
:04036400880200000b
:020000040000fa
:040368008802000007
:020000040000fa
:04036c008802000003
:020000040000fa
:0403700088020000ff
:020000040000fa
:0403740088020000fb
:020000040000fa
:0403780088020000f7
:020000040000fa
:04037c0088020000f3
:020000040000fa
:0403800088020000ef
:020000040000fa
:0403840088020000eb
:020000040000fa
:0403880088020000e7
:020000040000fa
:04038c0088020000e3
:020000040000fa
:0403900088020000df
:020000040000fa
:0403940088020000db
:020000040000fa
:0403980088020000d7
:020000040000fa
:04039c0088020000d3
:020000040000fa
:0403a00088020000cf
:020000040000fa
:0403a40088020000cb
:020000040000fa
:0403a80088020000c7
:020000040000fa
:0403ac0088020000c3
:020000040000fa
:100400008a1f78008b1f7800000006009101880089
:10041000800478000000eb001a003700e2844400fa
:1004200032a0b4009905ba00e284440032a0b400be
:100430009906ba00e284440032a0b4000006eb0042
:10044000476fde00fd07b200636ce10003003a0075
:10045000ebff07000000eb000a003700606ce100d2
:1004600004003a00005deb008b05e900fdff3e0053
:10047000040037006168e100010032000086eb00f3
:100480000b00070019c7ba001905ba000e04e000f6
:1004900003003a000a00e000e0ff3a000000060016
:1004a000fe07b2009e0188008a047800f5ff37003d
:1004b000395dba008b05e9000c003200295dba00f5
:1004c0008b05e900080032000c00e00003003a0050
:1004d000e284440032a0b400f5ff370019ddba0011
:1004e0008b05e900faff3a008904e800e184440042
:1004f00032a0b40000000600000000000000000070
:1005000000000000000000000000000000000000eb
:0c0510000040da000000fe0000000500c2
:020000040000fa
:10051c00413600003020000056650000722e0000ad
:10052c00302e000034640000204300006f70000087
:10053c0079720000696700006874000020320000c6
:10054c003031000033200000416b0000696d000069
:10055c006974000073750000205300006164000092
:10056c006f690000206100006b690000407400009e
:10057c00686500006c650000646100007274000026
:10058c002e6300006f6d00003c8800003a8600006e
:10059c00388400001e6a00001c680000186400000b
:1005ac00024e0000004c0000368200003480000037
:1005bc001662000014600000307c00002e7a0000ef
:1005cc000e5a00004a960000489400004692000023
:1005dc00449000002a76000026720000428e000033
:1005ec00408c00003e8a0000125e0000085400009f
:1005fc00206c0000105c000006520000045000004b
:10060c0070a7ef0072a7ef0074a7ef0076a7ef00ba
:10061c007aa7ef007ea7ef004007ae00030037007b
:10062c004007a9004027a900040037004027ae006e
:10063c00020037004027a90013053700fa00090013
:10064c000060fe0081e0a80000002000a0018800ee
:10065c004440a800afe7200000ff20000001880004
:10066c000000000040802000ec0cfc003a03090064
:10067c000018eb00f0ff2700704088004507a90028
:10068c0000002000403a880010c0b30031742000f4
:10069c0082072000a3092000824878008348780054
:1006ac0043e7b7002174200062042000730520008a
:1006bc0082487800834878004207a800c422ef00e3
:1006cc00cc22ef00cca2a900ccc2a900cd42a9003b
:1006dc00cda2a900c4c2a900cd02a900c022ef007e
:1006ec00c822ef00d022ef007207a90050002800aa
:1006fc00000a880000002000500a8800b012200078
:10070c00a00a880000012000c00a880094e0a8001c
:10071c007167a900f0ff27001008880005e1a80008
:10072c00c822a800e224a9006ea0a8002a0d02008d
:10073c0000000000f1ff2f000100e10004003a006e
:10074c000688a80000002000000d02000000000038
:10075c000040880000082000c07388000228ec00cc
:10076c008460ae00fdff37008460a90058090200c8
:10077c0000000000780ee20002003200782eed003e
:10078c00f6ff37000808af0003003700ca69ef0016
:10079c000828ef00070037000828ae00efff3700ed
:1007ac000668a800406aed00426aed00bc6aed00e4
:1007bc00eaff37000668ae00020037000080270011
:1007cc002040880020812000d00cfc00330309005d
:1007dc000018eb000608a9000628a900a09c200020
:1007ec009040880020a4200020458800a0ab200069
:1007fc00b0498800c0032000a04088003045880024
:10080c00c0498800f00f2000f04088008045880027
:10081c00104a8800100120000008e3000100360097
:10082c000028ef00004080000060010082013700ca
:10083c00130037000f0037002d0037002900370058
:10084c00520037004e003700770037007500370034
:10085c00af003700ad003700e9003700e600370085
:10086c001b013700180137004a0137009901370086
:10087c00c10137002808a800ba08a8004c09a80034
:10088c00f0ff270000418800f0ff2700904588000a
:10089c00f0ff2700204a880010002000d04088007c
:1008ac0060458800f0498800e04088007045880069
:1008bc00004a880080002000c04088005045880015
:1008cc00e0498800a09c2000b400fc00b3000900a3
:1008dc0030f0a000cbe9a9006beaa9000beba90052
:1008ec00370237002808a800ba08a8004c09a8004d
:1008fc006066260000418800f0ff270090458800c4
:10090c00f0ff2900204a880010002000d040880009
:10091c0060458800f0498800e040880070458800f8
:10092c00004a8800d0002000c04088005045880054
:10093c00e0498800a09c2000b400fc00b300090032
:10094c0030f0a000cbe9a90043eaa900bbeaa9005a
:10095c002828a800ba28a8004c29a80010002000bc
:10096c0020418800b0458800404a880000002000e3
:10097c0030418800c0458800504a8800100237007a
:10098c002808a800ba08a8004c09a800ba08aa00b0
:10099c00203327000041880070eb27009045880029
:1009ac0040b82800204a880000082000d040880069
:1009bc0060458800f049880010002000e040880065
:1009cc0070458800004a880060002000c040880004
:1009dc0050458800e0498800a09c2000b400fc0031
:1009ec00b300090030f0a000cbe9a90043eaa9004c
:1009fc00bbeaa9002828a800ba28a8004c29a800fe
:100a0c001000200020418800b0458800404a880032
:100a1c000000200030418800c0458800504a880002
:100a2c00e70137004c09a8000628a800380d020081
:100a3c0000000000a15f20000100e100020039006d
:100a4c0001005000fcff370021b320003b000900df
:100a5c0080187800f05f2000f040880020b3200060
:100a6c0090408800a0ba20002045880020c22000b9
:100a7c00b049880000002000b04088004045880044
:100a8c00d04988000000230000418800f0ff2f00af
:100a9c0090458800f0ff2700204a880010002000b5
:100aac00d0408800f00f20006045880040002000f6
:100abc00f0498800a05f2000e04088000000200082
:100acc007045880040002000004a8800000020008b
:100adc00c040880050458800c0012000e0498800d3
:100aec0020c220003b00090030f0a00023eca9003c
:100afc005feca9004c29a80010002000404a880097
:100b0c0000002000504a8800ad0137004c09a800b5
:100b1c000628a800380d020000000000a15f20008c
:100b2c000100e1000200390001005000fcff370019
:100b3c0021b320003b00090080187800f05f2000f2
:100b4c00f040880020b3200090408800a0ba20001c
:100b5c002045880020c22000b049880000002000f9
:100b6c00b040880040458800d04988000000230030
:100b7c0000418800f0ff2f009045880090992900d3
:100b8c00204a880010002000d0408800f00f200080
:100b9c006045880050052000f0498800a05f2000c7
:100bac00e040880000002000704588001000200004
:100bbc00004a880000002000c0408800000020008f
:100bcc005045880020002000e0498800a0ba200091
:100bdc007700090030f0a000abeba90023eca900d2
:100bec004c29a80010002000404a8800000020007a
:100bfc00504a8800720137002808a8004c09a80048
:100c0c000628a800f05f2000f040880020b32000e8
:100c1c0090408800a0ba20002045880020c2200007
:100c2c00b049880000002000b04088004045880092
:100c3c00d0498800f0ff2c0000418800f0ff2f0005
:100c4c0090458800f0ff2700204a880030002000e3
:100c5c00d0408800f00f2000604588004000200044
:100c6c00f049880000602000e0408800000020006f
:100c7c007045880040002000004a88008001200058
:100c8c00c04088000000200050458800c0012000b2
:100c9c00e049880020b32000b300090030f0a00028
:100cac0033eba900abeba90023eca9005feca90086
:100cbc004c29a80010002000404a880000002000a9
:100ccc00504a88003e0137002808a8004c09a800ab
:100cdc000628a800f05f2000f040880020b3200018
:100cec0090408800a0ba20002045880020c2200037
:100cfc00b049880000002000b040880040458800c2
:100d0c00d0498800f0ff2c0000418800f0ff2f0034
:100d1c0090458800f0ff2700204a88003000200012
:100d2c00d0408800f00f200060458800500520005e
:100d3c00f049880000602000e0408800000020009e
:100d4c007045880010002000004a880080012000b7
:100d5c00c040880000002000504588002000200082
:100d6c00e049880020b32000b300090030f0a00057
:100d7c0033eba900abeba90023eca9004c29a8008c
:100d8c0010002000404a880000002000504a8800d3
:100d9c000b0137000628a800380d020000000000e7
:100dac00a15f20000100e1000200390001005000a9
:100dbc00fcff370021b320003b00090080187800ad
:100dcc00f05f2000f040880020b3200090408800a5
:100ddc00a0ba20002045880020c22000b04988001d
:100dec0000002000b040880040458800d0498800b1
:100dfc00f0ff250000418800f0ff2f00904588008f
:100e0c00f0ff2f00204a880010002000d0408800fe
:100e1c00f00f20006045880010002000f049880089
:100e2c0000602000e0408800000020007045880031
:100e3c00004a8800e200370000002000b040880023
:100e4c00002020004045880000402000d049880048
:100e5c00f0ff2f000041880090458800204a880050
:100e6c0010002000d040880060458800f0498800c0
:100e7c00e040880070458800004a8800400020004f
:100e8c00c040880050458800e0498800a09c2000a4
:100e9c00b300090030f0a000cbe9a90043eaa90097
:100eac00bbeaa9002828a800ba28a8004c29a80049
:100ebc001000200020418800b0458800404a88007e
:100ecc00c03f200030418800c0458800504a88004f
:100edc00bb0037000628a80020882000404e880060
:100eec00f05f2000f040880020b320009040880084
:100efc00a0ba20002045880020c22000b0498800fc
:100f0c00f0ff2f000041880090458800204a88009f
:100f1c0010002000d04088000000200060458800b0
:100f2c00f0032000f0498800a05f2000e04088001a
:100f3c00000020007045880010002000004a880046
:100f4c0010002000c0408800504588000010200090
:100f5c00e049880020c220003b00090030f0a000ce
:100f6c004c29a80010002000404a880000002000f6
:100f7c00504a8800920037000628a800c08a20003a
:100f8c00404e8800f05f2000f040880020b3200025
:100f9c0090408800a0ba20002045880020c2200084
:100fac00b0498800f0ff2f0000418800204a8800db
:100fbc00f0ff270090458800003020004045880055
:100fcc0020002000d04088001000200060458800e0
:100fdc00f0032000f0498800a05f2000e04088006a
:100fec00100020007045880010002000004a880086
:100ffc00a0012000c040880010002000504588004f
:10100c0000102000e049880020b320003a000900bd
:10101c0030f0a000a0ba20003a00090030f0a00087
:10102c0020c220003b00090030f0a000ba28a80024
:10103c004c29a80000302000b0458800c04588002d
:10104c0010002000404a880000002000504a880010
:10105c005b0037000628a800c08c2000404e88009a
:10106c00f05f2000f040880020b320009040880002
:10107c00a0ba20002045880020c22000b04988007a
:10108c00f0ff2f0000418800f0ff2f0090458800f2
:10109c0060662600204a880030002000d04088007e
:1010ac00f00f20006045880000082000f0498800ff
:1010bc0020002000e04088000000200070458800df
:1010cc0010002000004a880030002000e049880011
:1010dc0020c220003b00090030f0a00023eca90046
:1010ec004c29a80010002000404a88000000200075
:1010fc00504a88003200370023c22000a9c92000c2
:10110c00380d02000000000001f02f000100e1008a
:10111c000a0039001304e00008003a0013f0a100a3
:10112c00f10f2000010060006600b80080099f00ec
:10113c00380d02000000000080499f008381e80008
:10114c000918e100eeff3a000000060023c220005f
:10115c00a9c92000380d0200000000000100200089
:10116c000100e100050039001304e00003003a001f
:10117c008049780013e0a00013f0a1008381e800ff
:10118c000918e100f3ff3a000000060023c220001a
:10119c00a9c920001304e00005003a00380d020034
:1011ac0000000000f15f20000100600080099f003a
:1011bc008381e8000918e100f6ff3a000000060000
:1011cc0094e0a8008460ae00feff37008460a900a4
:1011dc000668ae00050037000428ed0003003a0055
:1011ec004209020000000000070037005809020005
:1011fc00000000000828af00230237000848ae00aa
:10120c00090037000848a9000028ec0094e0a90068
:10121c0084e0ae00feff370000408000000d0200ad
:10122c000000000063fd3700704080001028b400ff
:10123c00e4ff3900c809e20002003200404e800091
:10124c0000000100218120009e0902000000000026
:10125c00418a20009e0902000000000061932000da
:10126c009e090200000000000628af003e0a0200a2
:10127c0000000000d3ff3700380d02000000000012
:10128c00220120001200fc00110009000280d8008d
:10129c00010078000008e300f7ff320000408800ee
:1012ac00000006000688af00000006005016800003
:1012bc000010a3000aa8d600818020006a09020051
:1012cc0000000000000006001100a7000800370015
:1012dc00f0ff2f00110190000201600003003a00a2
:1012ec001100a000a00f2000a00098000000060034
:1012fc00f0ff2f0011019000020160000001690055
:10130c0003003a001100a1001120a000000006000b
:10131c00648140001209e90001003200000006005f
:10132c001110a000a00f2000a000980000000600e3
:10133c0071009000f08140009309400001003100e1
:10134c0000000600648040001000e0000200320043
:10135c001008e90000000600410890000000e000c1
:10136c0003003200811f780000000100cf007800dc
:10137c0081049000110090000000e9000000d000f2
:10138c008085440041069000d10690003104900005
:10139c006107900088035700310b90000600a700ee
:1013ac000200370062854400010037000b0578000d
:1013bc00fa824000f0ff23001900600019f0a6002b
:1013cc00050037001500e0001d003200950ae90009
:1013dc001b003a0019f0a10019e0a7000d0037001e
:1013ec000040e7001af0a1000c0040000e00e100e4
:1013fc00130039000e00780019e0a2000610a600b8
:10140c000f00370019f0a00091099000830a7800b2
:10141c000b0037000038e7001af0a1000d00500057
:10142c00070031000000eb0019e0a2000610a60036
:10143c000300370019f0a000a1099000830a78007e
:10144c0003002c0099816100830c70000b48e700ad
:10145c00000006008582e8008984e8000a85e8001f
:10146c000b50e600d3ff370001059000d1ff370089
:10147c0023b32000a79c200009a42000f0ff230028
:10148c001302780004026000c33a900085026000e9
:10149c0003bb900006036000620a0200000000001b
:1014ac000938e100030032008381e8008783e800fb
:1014bc00f2ff3700000006000500e00004003a00cf
:1014cc00860b7800c63b980086bb9800000006008f
:1014dc00847388004820de00707388004800dd00ab
:1014ec00702eb50000102000050050000600b8005a
:1014fc004800de0090738800807380000500b800ff
:10150c004800de000000ea000010b0000600b80041
:10151c004800de00a0738800807380000000ea00a1
:10152c000010b0000500b8004800de000000ea0022
:10153c000010b0000600b8004800de00b073880050
:10154c007073800000600100050037000a0037004e
:10155c000f00370014003700190037001e00370049
:10156c00860b7800b0738000c03b980090738000ad
:10157c0080bb980000000600a0738000800b7800f0
:10158c00c63b98009073800080bb9800000006005a
:10159c0090738000800b7800c63b9800b07380007d
:1015ac0080bb98000000060090738000800b7800d0
:1015bc00a0738000c03b980086bb9800000006001a
:1015cc00b0738000800b780090738000c03b980053
:1015dc0086bb980000000600860b78009073800094
:1015ec00c03b9800a073800080bb980000000600f0
:1015fc0000a0fe00849fbe004621ef0040738000d7
:10160c005173800062738000201688006116880078
:10161c00a2168800d064800000600100060037002c
:10162c0024003700270037002a0037002d00370030
:10163c0030003700330037000648a8009c2cef0020
:10164c009c2cec000608af0038003700000020008e
:10165c00900188000000eb00a52c2000a19c20002c
:10166c0024a4200002ca20003540ba003131780091
:10167c000408e100fcff3a00a52c2000a4ab2000dc
:10168c0082d320003540ba00313178000408e100e3
:10169c00fcff3a00a52c200024b3200002dd200022
:1016ac003540ba00313178000408e100fcff3a0003
:1016bc001e0037004781a800be0b0200000000008e
:1016cc002200370047a1a800c60b02000000000052
:1016dc001e0037004741a800ba0b020000000000b2
:1016ec001a0037004761a800c20b0200000000007e
:1016fc00160037004701a800ca0b020000000000ca
:10170c00120037004721a8009cacec00f00f200021
:10171c009c0ce30005003600682eef006a2eef00eb
:10172c006c2eef009a2cef000900370023c0280024
:10173c00e0ff2f009c0cb60063007800e00a8800e4
:10174c00b60b0200000000009a2cef009a2cec0063
:10175c004f02be000080fe0084e0a900004006009d
:10176c0001ca200009003700c1ce20000700370055
:10177c0081d320000500370041d82000030037003a
:10178c0001dd200001003700c1e1200082e62000cd
:10179c00e3648000048020000409780031007800a4
:1017ac000304e1001289d300fcff39000300090097
:1017bc001209d1000281e800040028000409780015
:1017cc00310078000304e1001289d300fcff3900da
:1017dc000281e80004202000040978003100780020
:1017ec000304e1001289d300fcff39000500090055
:1017fc001209d100000006001100000013000000c7
:10180c001500000017000000190000001c0000006b
:10181c001e00000020000000220000002500000037
:10182c0027000000290000002b0000002d00000004
:10183c0030000000320000003400000036000000d0
:10184c00390000003b0000003d0000003f0000009c
:10185c004100000044000000460000004800000069
:10186c004a0000004d0000004f0000005100000035
:10187c005300000055000000580000005a00000002
:10188c005c0000005e0000006100000063000000ce
:10189c006500000067000000690000006c0000009b
:1018ac006e00000070000000720000007400000068
:1018bc0077000000790000007b0000007d00000034
:1018cc008000000082000000840000008600000000
:1018dc00880000008b0000008d0000008f000000cd
:1018ec009100000094000000960000009800000099
:1018fc009a0000009c0000009f000000a100000066
:10190c00a3000000a5000000a8000000aa00000031
:10191c00ac000000ae000000b0000000b3000000fe
:10192c00b5000000b7000000b9000000bc000000ca
:10193c00be000000c0000000c2000000c400000097
:10194c00c7000000c9000000cb000000cd00000063
:10195c00cf000000d2000000d4000000d600000030
:10196c00d8000000db000000dd000000df000000fc
:10197c00e1000000e3000000e6000000e8000000c9
:10198c00ea000000ec000000ef000000f100000095
:10199c00f3000000f5000000f7000000fa00000062
:1019ac00fc000000fe00000000010000030100002c
:1019bc000501000007010000090100000b010000f7
:1019cc000e010000100100001201000014010000c3
:1019dc0017010000190100001b0100001d0100008f
:1019ec001f0100002201000024010000260100005c
:1019fc00280100007687a900f107200091018800da
:101a0c0001e02f008008bb006027ef0061c7a80031
:101a1c006047a8000700fc0051052000313b8800fe
:101a2c00a10a2000313b880061e7a80000000000fb
:101a3c00000000000060fe0061e7af00fdff370012
:101a4c007687a800000006007687a900f007200022
:101a5c009001880000e02f001000ba007687a800e3
:101a6c000000060000402b004200a90002a8d7008d
:101a7c004200af0002a8b6004220af000228ec00e2
:101a8c00104080000000060040a7a9000421ef00d0
:101a9c009420ef009620ef00c422ef00cc22ef0040
:101aac004021ef0084e0a90050c0b3003174200045
:101abc0082072000a3092000824878008348780020
:101acc0043e7b70021742000620420007305200056
:101adc0082487800834878004207a800c822a800f2
:101aec00e224a9006ea0a800ca22ae00feff3700b7
:101afc00ff070900000000008420ef008620ef00a3
:101b0c0062a0a8009660a8000040fe00feff37000f
:041b1c000000fe00c7
:020000040000fa
:101b2000000800007a06000000000000000000002d
:020000040000fa
:0200000401f009
:04000800fdff0000f8
:020000040000fa
:0200000401f009
:04000c001dff0000d4
:020000040000fa
:0200000401f009
:040010005bff000092
:020000040000fa
:0200000401f009
:0400140040ff0000a9
:020000040000fa
:0200000401f009
:04001800ffff0000e6
:020000040000fa
:0200000401f009
:04001c00feff0000e3
:00000001FF
